:020000040800F2
:1000000060060020450200084D0200084F0200086B
:1000100051020008530200085502000800000000C9
:10002000000000000000000000000000570200086F
:1000300059020008000000005B0200085D02000891
:100040005F0200085F0200085F0200085F0200080C
:100050005F0200085F0200085F0200085F020008FC
:100060005F0200085F0200085F0200085F020008EC
:100070005F0200085F0200085F0200085F020008DC
:100080005F0200085F0200085F0200080000000035
:100090000000000000000000000000005F020008F7
:1000A0005F0200085F0200085F0200085F020008AC
:1000B0005F0200085F0200085F0200085F0200089C
:1000C0005F0200085F0200085F0200085F0200088C
:1000D0005F0200085F0200085F02000800000000E5
:1000E0005F0200085F0200085F02000800000000D5
:1000F0000000000000000000000000005F02000897
:10010000000000005F0200085F0200085F020008B4
:1001100000000000000000000000000000000000DF
:100120005F0200085F0200085F0200085F0200082B
:100130005F02000800000000000000000000000056
:100140000000000000000000000000005F02000846
:100150005F0200085F0200085F0200085F020008FB
:100160005F0200085F0200080000000000000000BD
:10017000000000000000000000000000000000007F
:10018000000000005F020008000000000000000006
:100190005F02000800F002F800F044F814A696E8A8
:1001A000000CB244B344DA4501D100F03BF8BAE8A0
:1001B0000F000FA696E83000A5EB040504EB060738
:1001C000AAEB0704A7F101074FEA15154FEA34140B
:1001D000A4F10104AC4201D300F024F813F0010FA4
:1001E00018BFFB1A43F0010300F001F8DBE71847E2
:1001F000340600004406000070470000002300247D
:1002000000250026103A28BF78C1FBD8520728BF26
:1002100030C148BF0B6070471FB500F0F6FA1FBD34
:1002200010B510BD00F031F81146FFF7F5FF00F0F2
:10023000A7F900F04FF803B4FFF7F2FF03BC00F09A
:1002400057F800000948804709480047FEE7FEE7E5
:10025000FEE7FEE7FEE7FEE7FEE7FEE7FEE7FEE776
:1002600004480549054A064B704700000103000891
:100270009501000860000020600600206002002058
:1002800060020020704770477047754600F02CF8F8
:10029000AE4605006946534620F00700854618B073
:1002A00020B5FFF7DDFFBDE820404FF000064FF01E
:1002B00000074FF000084FF0000BAC46ACE8C00957
:1002C000ACE8C009ACE8C009ACE8C00921F00701FE
:1002D0008D46704710B50446AFF300802046BDE858
:1002E0001040FFF7A8BF0000004870470000002042
:1002F00001491820ABBEFEE726000200704700004F
:100300004EF68851CEF20001086840F47000086093
:100310007047000082B00190002000900090FFE73D
:10032000009801994FF47A725143884205DAFFE749
:10033000FFE7009801300090F2E702B0704700003C
:1003400043F63001C4F20201086840F0040008607E
:1003500040F60002C4F20202106840F00100106092
:10036000106840F004001060106840F01000106049
:10037000106840F040001060106840F48070106019
:10038000106840F480601060106840F48050106085
:10039000106840F480401060106840F480301060B5
:1003A000106840F480201060106840F480101060E5
:1003B000086840F0010008600022C4F202021068E0
:1003C00040F001001060106840F0040010601068F8
:1003D00040F010001060086840F00200086040F231
:1003E0000041C4F2020100200860704784B002900E
:1003F0000020019002980090FFE7029801281DDB81
:10040000FFE7019800EB8002029846F26761C6F2AE
:10041000666150FB01FC4FEAAC0303EBDC7303EBBA
:100420008303A0EB430000EB42000190029850FBD5
:1004300001F1881000EBD1700290DEE7009801997D
:10044000884203D1FFE70120039002E000200390DF
:10045000FFE7039804B0704783B00190019801282A
:1004600003DCFFE7002002901BE002200090FFE782
:10047000009840430199884210DCFFE7019A0099F7
:1004800092FBF1F000FB112018B9FFE70020029069
:1004900007E0FFE7009801300090E9E701200290B3
:1004A000FFE7029803B0704780B584B0039040F630
:1004B0001401C4F202010191086820F003000860F1
:1004C000086800F007000860039A086840EAC20064
:1004D0000860086840F0040008600A200290FFF7F6
:1004E00019FF019A0298116821F004011160039923
:1004F0000429B8BF1420FFF70DFF04B080BD000031
:1005000080B53020FFF7D0FF0620FFF7CDFF012098
:10051000FFF7CAFF8020FFF7C7FF0C20FFF7C4FFDB
:1005200080BD000080B584B08DF80F0040F6140146
:10053000C4F202010191086840F0010008600868F7
:1005400020F002000860086800F0070008609DF8CD
:100550000F20086840EAC2000860086840F0040004
:100560000860C8200290FFF7D5FE019A0298116832
:1005700021F004011160FFF7CDFE04B080BD000042
:1005800080B584B0002001900390FFF7D9FEFFF7FB
:10059000B7FF8020FFF788FF01980290FFE7142142
:1005A000C4F2020100200860086840F00100086001
:1005B00040F21040C4F202000068C00750B1FFE7EB
:1005C0003120FFF7AFFF029800EB800040000130C0
:1005D0000290FFE740F21040C4F20200006880077A
:1005E00000280BD5FFE73420FFF79CFF029800EBB3
:1005F0008001042000EB41000290FFE740F2104030
:10060000C4F202000068400700280BD5FFE737203E
:10061000FFF788FF029800EB8001072000EB410004
:100620000290FFE71421C4F202010020086008686C
:1006300040F00200086040F21040C4F2020000687E
:10064000C00758B1FFE73220FFF76CFF029800EBBC
:100650008001022000EB41000290FFE740F21040D1
:10066000C4F202000068800700280BD5FFE73520A0
:10067000FFF758FF029800EB8001052000EB4100D6
:100680000290FFE740F21040C4F202000068400709
:1006900000280BD5FFE73820FFF744FF029800EB56
:1006A0008001082000EB41000290FFE740F210407B
:1006B000C4F2020000688006002809D5FFE7302058
:1006C000FFF730FF029800EB800040000290FFE748
:1006D0001421C4F2020100200860086840F0040000
:1006E000086040F21040C4F202000068C00758B130
:1006F000FFE73320FFF716FF029800EB800103208D
:1007000000EB41000290FFE740F21040C4F202000B
:100710000068800700280BD5FFE73620FFF702FFAF
:10072000029800EB8001062000EB41000290FFE7F9
:1007300040F21040C4F202000068400700280BD5C8
:10074000FFE73920FFF7EEFE029800EB8001092059
:1007500000EB41000290FFE740F21040C4F20200BB
:1007600000684006002801D4FFE700E017E72020DA
:10077000FFF7D8FE0298FFF739FE00B3FFE77020BD
:10078000FFF7D0FE6C20FFF7CDFE2C20FFF7CAFE4E
:100790000298FFF761FE38B1FFE77020FFF7C2FE55
:1007A0007220FFF7BFFE09E04E20FFF7BBFE70206E
:1007B000FFF7B8FE7220FFF7B5FEFFE722E04E20FC
:1007C000FFF7B0FE7020FFF7ADFE6C20FFF7AAFE2A
:1007D0002C20FFF7A7FE0298FFF73EFE38B1FFE797
:1007E0007020FFF79FFE7220FFF79CFE09E04E206D
:1007F000FFF798FE7020FFF795FE7220FFF792FE3C
:10080000FFE7FFE7002004B080BDF1EE100A4FF6CD
:10081000FF71C0F2C03120EA010040F04070E1EE0B
:10082000100A70473408000800000020600600002D
:04083000FC010008BF
:040000050800019559
:00000001FF
