:020000040800F2
:1000000060060020450200084D0200084F0200086B
:1000100051020008530200085502000800000000C9
:10002000000000000000000000000000570200086F
:1000300059020008000000005B0200085D02000891
:100040005F0200085F0200085F0200085F0200080C
:100050005F0200085F0200085F0200085F020008FC
:100060005F0200085F0200085F0200085F020008EC
:100070005F0200085F0200085F0200085F020008DC
:100080005F0200085F0200085F0200080000000035
:100090000000000000000000000000005F020008F7
:1000A0005F0200085F0200085F0200085F020008AC
:1000B0005F0200085F0200085F0200085F0200089C
:1000C0005F0200085F0200085F0200085F0200088C
:1000D0005F0200085F0200085F02000800000000E5
:1000E0005F0200085F0200085F02000800000000D5
:1000F0000000000000000000000000005F02000897
:10010000000000005F0200085F0200085F020008B4
:1001100000000000000000000000000000000000DF
:100120005F0200085F0200085F0200085F0200082B
:100130005F02000800000000000000000000000056
:100140000000000000000000000000005F02000846
:100150005F0200085F0200085F0200085F020008FB
:100160005F0200085F0200080000000000000000BD
:10017000000000000000000000000000000000007F
:10018000000000005F020008000000000000000006
:100190005F02000800F002F800F044F814A696E8A8
:1001A000000CB244B344DA4501D100F03BF8BAE8A0
:1001B0000F000FA696E83000A5EB040504EB060738
:1001C000AAEB0704A7F101074FEA15154FEA34140B
:1001D000A4F10104AC4201D300F024F813F0010FA4
:1001E00018BFFB1A43F0010300F001F8DBE71847E2
:1001F0000C0400001C0400007047000000230024D1
:1002000000250026103A28BF78C1FBD8520728BF26
:1002100030C148BF0B6070471FB500F0E2F91FBD49
:1002200010B510BD00F031F81146FFF7F5FF00F0F2
:10023000E3F800F04FF803B4FFF7F2FF03BC00F05F
:1002400057F800000948804709480047FEE7FEE7E5
:10025000FEE7FEE7FEE7FEE7FEE7FEE7FEE7FEE776
:1002600004480549054A064B704700000103000891
:100270009501000860000020600600206002002058
:1002800060020020704770477047754600F02CF8F8
:10029000AE4605006946534620F00700854618B073
:1002A00020B5FFF7DDFFBDE820404FF000064FF01E
:1002B00000074FF000084FF0000BAC46ACE8C00957
:1002C000ACE8C009ACE8C009ACE8C00921F00701FE
:1002D0008D46704710B50446AFF300802046BDE858
:1002E0001040FFF7A8BF0000004870470000002042
:1002F00001491820ABBEFEE726000200704700004F
:100300004EF68851CEF20001086840F47000086093
:100310007047000082B0019001984AF22011C0F2AB
:10032000070148430090FFE7009828B1FFE7FFE787
:10033000009801380090F7E702B0704784B002904F
:100340000020019002980090FFE7029801281DDB31
:10035000FFE7019800EB8002029846F26761C6F25F
:10036000666150FB01FC4FEAAC0303EBDC7303EB6B
:100370008303A0EB430000EB42000190029850FB86
:1003800001F1881000EBD1700290DEE7009801992E
:10039000884203D1FFE70120039002E00020039090
:1003A000FFE7039804B0704783B0019001980128DB
:1003B00003DCFFE7002002901BE002200090FFE733
:1003C000009840430199884210DCFFE7019A0099A8
:1003D00092FBF1F000FB112018B9FFE7002002901A
:1003E00007E0FFE7009801300090E9E70120029064
:1003F000FFE7029803B0704780B582B000200190FB
:1004000043F63002C4F202020321116040F20041BF
:10041000C4F2020108600021C4F20201086845F23A
:100420000042C1F255521043086001200090FFE7DE
:1004300040F21040C4F202000068C007D0B9FFE7E4
:10044000009801300090FFE70098FFF777FF30B188
:10045000FFE70098FFF7A8FF08B1FFE703E0009867
:1004600001300090F0E7009800F02AF80120FFF733
:1004700051FF23E040F21040C4F202000068800700
:1004800000281AD4FFE7009801380090FFE7009891
:10049000FFF754FF30B1FFE70098FFF785FF08B181
:1004A000FFE703E0009801380090F0E7009800F0C3
:1004B00007F80120FFF72EFFFFE7FFE7B8E700008E
:1004C00080B586B00590FFE70598002800F087808A
:1004D000FFE7059846F26761C6F2666150FB01F3DB
:1004E0009A1002EBD37202EB8202A0EB420004905E
:1004F000059850FB01F1881000EBD170059004982D
:10050000039003980290082851D80299DFE801F07F
:10051000050D161E262F373F47001421C4F2020195
:10052000086840F0E000086049E01421C4F20201CC
:10053000086844F2E0721043086040E01421C4F2FD
:100540000201086840F41660086038E01421C4F223
:100550000201086840F45870086030E01421C4F2C9
:100560000201086844F260621043086027E0142129
:10057000C4F20201086840F4935008601FE014219F
:10058000C4F20201086840F48350086017E01421A7
:10059000C4F20201086840F4FC6008600FE0142116
:1005A000C4F20201086840F06000086007E014210E
:1005B000C4F20201086840F418700860FFE70120E7
:1005C0000190FFF7A7FE01981422C4F202021168FD
:1005D00047F6E07399431160FFF79CFE74E706B09D
:1005E00080BDF1EE100A4FF6FF71C0F2C03120EA73
:1005F000010040F04070E1EE100A70470C06000860
:0C0600000000002060060000FC01000863
:040000050800019559
:00000001FF
