:020000040800F2
:1000000060060020450200084D0200084F0200086B
:1000100051020008530200085502000800000000C9
:10002000000000000000000000000000570200086F
:1000300059020008000000005B0200085D02000891
:100040005F0200085F0200085F0200085F0200080C
:100050005F0200085F0200085F0200085F020008FC
:100060005F0200085F0200085F0200085F020008EC
:100070005F0200085F0200085F0200085F020008DC
:100080005F0200085F0200085F0200080000000035
:100090000000000000000000000000005F020008F7
:1000A0005F0200085F0200085F0200085F020008AC
:1000B0005F0200085F0200085F0200085F0200089C
:1000C0005F0200085F0200085F0200085F0200088C
:1000D0005F0200085F0200085F02000800000000E5
:1000E0005F0200085F0200085F02000800000000D5
:1000F0000000000000000000000000005F02000897
:10010000000000005F0200085F0200085F020008B4
:1001100000000000000000000000000000000000DF
:100120005F0200085F0200085F0200085F0200082B
:100130005F02000800000000000000000000000056
:100140000000000000000000000000005F02000846
:100150005F0200085F0200085F0200085F020008FB
:100160005F0200085F0200080000000000000000BD
:10017000000000000000000000000000000000007F
:10018000000000005F020008000000000000000006
:100190005F02000800F002F800F044F814A696E8A8
:1001A000000CB244B344DA4501D100F03BF8BAE8A0
:1001B0000F000FA696E83000A5EB040504EB060738
:1001C000AAEB0704A7F101074FEA15154FEA34140B
:1001D000A4F10104AC4201D300F024F813F0010FA4
:1001E00018BFFB1A43F0010300F001F8DBE71847E2
:1001F00004050000140500007047000000230024DF
:1002000000250026103A28BF78C1FBD8520728BF26
:1002100030C148BF0B6070471FB500F05DFA1FBDCD
:1002200010B510BD00F031F81146FFF7F5FF00F0F2
:10023000EFF800F04FF803B4FFF7F2FF03BC00F053
:1002400057F800000948804709480047FEE7FEE7E5
:10025000FEE7FEE7FEE7FEE7FEE7FEE7FEE7FEE776
:1002600004480549054A064B704700000103000891
:100270009501000860000020600600206002002058
:1002800060020020704770477047754600F02CF8F8
:10029000AE4605006946534620F00700854618B073
:1002A00020B5FFF7DDFFBDE820404FF000064FF01E
:1002B00000074FF000084FF0000BAC46ACE8C00957
:1002C000ACE8C009ACE8C009ACE8C00921F00701FE
:1002D0008D46704710B50446AFF300802046BDE858
:1002E0001040FFF7A8BF0000004870470000002042
:1002F00001491820ABBEFEE726000200704700004F
:100300004EF68851CEF20001086840F47000086093
:100310007047000081B042F210700090FFE7009833
:1003200028B1FFE7FFE7009801380090F7E701B038
:100330007047000081B049F640400090FFE7009808
:1003400028B1FFE7FFE7009801380090F7E701B018
:100350007047000084B00290002001900298009045
:10036000FFE7029801281DDBFFE7019800EB800200
:10037000029846F26761C6F2666150FB01FC4FEAE3
:10038000AC0303EBDC7303EB8303A0EB430000EB54
:1003900042000190029850FB01F1881000EBD170EF
:1003A0000290DEE700980199884203D1FFE701201F
:1003B000039002E000200390FFE7039804B0704729
:1003C00083B001900198012803DCFFE70020029030
:1003D0001BE002200090FFE700984043019988420B
:1003E00010DCFFE7019A009992FBF1F000FB11206D
:1003F00018B9FFE70020029007E0FFE700980130FE
:100400000090E9E701200290FFE7029803B07047EF
:1004100080B5ADF6B87D0DF6AC710191002002906B
:10042000886043F63002C4F202020721116040F6F0
:100430000001C4F20201086040F60C01C4F202019E
:10044000086000F033F80199029802224A600860BF
:10045000FFE7FFE701984068FFF7B2FF0146012080
:10046000009049B1FFE701984068FFF773FFB0FAC9
:1004700080F040090090FFE70098C00728B1FFE72F
:100480000199486801304860E4E7019841680368D1
:1004900003AA42F82310016801310160406800F0AE
:1004A00025F80199486801304860D2E70021C4F27C
:1004B0000201086840F001000860086840F004008C
:1004C0000860086840F010000860086840F04000CC
:1004D0000860086840F480700860086840F4806034
:1004E0000860086840F480500860704780B590B09C
:1004F0000F9000200E900F980D90FFE70D9878B1A7
:10050000FFE70D9846F26761C6F2666150FB01F1A4
:10051000881000EBD1700D900E9801300E90EDE731
:1005200000200C90FFE70C980E99884280F2CB8057
:10053000FFE70F9846F26761C6F2666150FB01F370
:100540009A1002EBD37202EB8202A0EB42000B90F6
:100550000F9850FB01F1881000EBD1700F900B98B1
:100560000A90092800F2AA800A99DFE801F005152F
:1005700026364657677787971421C4F202010991FE
:10058000086840F0E0000860FFF7C4FE09990868B9
:1005900000F47F40086091E01421C4F20201089148
:1005A000086844F2E07210430860FFF7B3FE089950
:1005B000086800F47F40086080E01421C4F2020162
:1005C0000791086840F416600860FFF7A3FE0799DA
:1005D000086800F47F40086070E01421C4F2020152
:1005E0000691086840F458700860FFF793FE06997A
:1005F000086800F47F40086060E01421C4F2020142
:100600000591086844F2606210430860FFF782FEBB
:100610000599086800F47F4008604FE01421C4F297
:1006200002010491086840F493500860FFF772FEDD
:100630000499086800F47F4008603FE01421C4F288
:1006400002010391086840F483500860FFF762FEDE
:100650000399086800F47F4008602FE01421C4F279
:1006600002010291086840F4FC600860FFF752FE46
:100670000299086800F47F4008601FE01421C4F26A
:1006800002010191086840F060000860FFF742FE37
:100690000199086800F47F4008600FE01421C4F25B
:1006A00002010091086840F418700860FFF732FEFC
:1006B0000099086800F47F400860FFE7FFE70C98A6
:1006C00001300C902FE71421C4F2020100200860D1
:1006D000FFF730FE10B080BDF1EE100A4FF6FF714B
:1006E000C0F2C03120EA010040F04070E1EE100A93
:1006F00070470000040700080000002060060000AA
:04070000FC010008F0
:040000050800019559
:00000001FF
